S01400004D795F46756E6374696F6E732E7372656332
S113000009C1000030C100002EC100002CC1000055
S11300102AC1000028C1000026C1000024C100003C
S113002022C1000020C100001EC100001CC100004C
S11300301AC1000018C1000016C1000014C100005C
S113004012C1000010C100000C94580A0CC1000039
S11300500AC1000008C1000006C1000004C100007C
S113006002C1000000C10000FEC00000FCC000008E
S1130070FAC00000F8C00000F6C00000F4C00000A0
S1130080F2C00000F0C00000EEC00000076342367A
S1130090B79BD8A71A39685618AEBAAB558C1D3C15
S11300A0B7CC5763BD6DEDFD753EF6177231BF00D9
S11300B00000803F08000000BE922449123EABAA13
S11300C0AA2ABECDCCCC4C3E00000080BEABAAAA6E
S11300D0AA3E00000000BF000000803F00000000B6
S11300E000084178D3BB4387D1133D190E3CC3BDEF
S11300F04282AD2B3E68EC8276BED98FE1A93E4C9C
S113010080EFFFBE01C4FF7F3F00000000006E616E
S11301106E00696E660000407A10F35A00A0724EB9
S113012018090010A5D4E80000E87648170000E498
S11301300B54020000CA9A3B000000E1F5050000E0
S113014080969800000040420F000000A086010045
S11301500000102700000000E80300000000640015
S1130160000000000A000000000001000000000080
S11301702C76D888DC674F0823DFC1DFAE59E1B1A4
S1130180B796E5E3E453C63AE651997696E8E6C2B3
S11301908426EB898C9B62ED407C6FFCEFBC9C9FBA
S11301A040F2BAA56FA5F490055A2AF75C936B6CDC
S11301B0F9676DC11BFCE0E40D47FEF520E6B500D0
S11301C0D0ED902E0300943577050080841E08003E
S11301D000204E0A000000C80C333333330F986EEE
S11301E012831141EF8D2114893BE65516CFFEE6AB
S11301F0DB18D1844B381BF77C1D901DA4BBE42471
S1130200203284725E228100C9F124ECA1E53D27ED
S11302107F04960A11241FBECFEFD0E1DEBFCDBF0D
S113022011E0A0E0B1E0E4E5FAE200E00BBF02C0B7
S113023007900D92AE31B107D9F722E0AEE1B1E0FB
S113024001C01D92A435B207E1F711E0CAE0D1E084
S113025004C02197FE010E94DB11C830D107C9F701
S113026020D30C942815CCCEFC019081911172C03E
S1130270818181110CC04AB330E0B90102C0660F1C
S1130280771F8A95E2F7CB01842B8ABB08958130CE
S113029061F44AB330E0B90102C0660F771F8A9552
S11302A0E2F7CB01842B8ABB0895823061F44AB310
S11302B030E0B90102C0660F771F8A95E2F7CB01DF
S11302C0842B8ABB0895833061F44AB330E0B901CA
S11302D002C0660F771F8A95E2F7CB01842B8ABB95
S11302E00895843061F44AB330E0B90102C0660F66
S11302F0771F8A95E2F7CB01842B8ABB089585305A
S113030061F44AB330E0B90102C0660F771F8A95E1
S1130310E2F7CB01842B8ABB0895863061F44AB39B
S113032030E0B90102C0660F771F8A95E2F7CB016E
S1130330842B8ABB0895873009F095C24AB330E014
S1130340B90102C0660F771F8A95E2F7CB01842BAF
S11303508ABB0895913009F072C0918191110CC04B
S113036047B330E0B90102C0660F771F9A95E2F7F0
S1130370CB01842B87BB0895913061F447B330E0FF
S1130380B90102C0660F771F9A95E2F7CB01842B5F
S113039087BB0895923061F447B330E0B90102C0DD
S11303A0660F771F9A95E2F7CB01842B87BB0895DC
S11303B0933061F447B330E0B90102C0660F771F90
S11303C09A95E2F7CB01842B87BB0895943061F4AE
S11303D047B330E0B90102C0660F771F9A95E2F780
S11303E0CB01842B87BB0895953061F447B330E08B
S11303F0B90102C0660F771F9A95E2F7CB01842BEF
S113040087BB0895963061F447B330E0B90102C068
S1130410660F771F9A95E2F7CB01842B87BB08956B
S1130420973009F020C247B330E0B90102C0660F2B
S1130430771F9A95E2F7CB01842B87BB08959230FE
S113044009F06EC0918191110CC044B330E0B90140
S113045002C0660F771F9A95E2F7CB01842B84BB09
S11304600895913061F444B330E0B90102C0660FDD
S1130470771F9A95E2F7CB01842B84BB08959230C1
S113048061F444B330E0B90102C0660F771F9A9556
S1130490E2F7CB01842B84BB0895933061F444B319
S11304A030E0B90102C0660F771F9A95E2F7CB01DD
S11304B0842B84BB0895943061F444B330E0B901D3
S11304C002C0660F771F9A95E2F7CB01842B84BB99
S11304D00895953061F444B330E0B90102C0660F69
S11304E0771F9A95E2F7CB01842B84BB089596304D
S11304F051F484B330E002C0220F331F9A95E2F71F
S1130500282B24BB0895973009F0ADC184B330E0A3
S113051002C0220F331F9A95E2F7282B24BB0895BB
S1130520933009F06AC0918191110CC041B330E05D
S1130530B90102C0660F771F9A95E2F7CB01842BAD
S113054081BB0895913061F441B330E0B90102C038
S1130550660F771F9A95E2F7CB01842B81BB089530
S1130560923061F441B330E0B90102C0660F771FE5
S11305709A95E2F7CB01842B81BB0895933061F403
S113058041B330E0B90102C0660F771F9A95E2F7D4
S1130590CB01842B81BB0895943051F481B330E0B6
S11305A002C0220F331F9A95E2F7282B21BB08952E
S11305B0953051F481B330E002C0220F331F9A9575
S11305C0E2F7282B21BB0895963051F481B330E033
S11305D002C0220F331F9A95E2F7282B21BB0895FE
S11305E0973009F040C181B330E002C0220F331FBD
S11305F09A95E2F7282B21BB0895943009F068C03E
S1130600918191110CC042B130E0B90102C0660F72
S1130610771F9A95E2F7CB01842B82B90895913024
S113062061F442B130E0B90102C0660F771F9A95B8
S1130630E2F7CB01842B82B90895923061F442B180
S113064030E0B90102C0660F771F9A95E2F7CB013B
S1130650842B82B90895933051F482B130E002C002
S1130660220F331F9A95E2F7282B22B9089594306C
S113067051F482B130E002C0220F331F9A95E2F7A1
S1130680282B22B90895953051F482B130E002C08C
S1130690220F331F9A95E2F7282B22B9089596303A
S11306A051F482B130E002C0220F331F9A95E2F771
S11306B0282B22B90895973009F0D5C082B130E0D3
S11306C002C0220F331F9A95E2F7282B22B908950E
S11306D0953009F074C0918191110EC0E1E6F0E00B
S11306E0408130E0B90102C0660F771F9A95E2F7A6
S11306F0CB01842B80830895913061F4E1E6F0E02E
S1130700808130E002C0220F331F9A95E2F7282B34
S113071020830895923061F4E1E6F0E0808130E0D6
S113072002C0220F331F9A95E2F7282B20830895E5
S1130730933061F4E1E6F0E0808130E002C0220F02
S1130740331F9A95E2F7282B20830895943061F49F
S1130750E1E6F0E0808130E002C0220F331F9A9579
S1130760E2F7282B20830895953061F4E1E6F0E068
S1130770808130E002C0220F331F9A95E2F7282BC4
S113078020830895963061F4E1E6F0E0808130E062
S113079002C0220F331F9A95E2F7282B2083089575
S11307A0973009F060C0E1E6F0E0808130E002C0FB
S11307B0220F331F9A95E2F7282B20830895963051
S11307C009F051C0318131110DC0E4E6F0E04081FF
S11307D0822F90E002C0880F991F3A95E2F7842B8C
S11307E080830895313079F4E4E6F0E04081822F8B
S11307F090E0BC0102C0660F771F3A95E2F79B01B7
S1130800242B20830895323079F4E4E6F0E040812B
S1130810822F90E0BC0102C0660F771F3A95E2F781
S11308209B01242B20830895333079F4E4E6F0E02F
S11308304081822F90E0BC0102C0660F771F3A9579
S1130840E2F79B01242B20830895343061F4E4E61D
S1130850F0E04081822F90E002C0880F991F3A9502
S1130860E2F7842B808308950197D1F46F3F7F4F83
S1130870B9F48AE391E02BD561E08FE291E033D3C0
S113088062E084E291E02FD3E0E2F1E086E080834D
S1130890118281E0838321E040E066E0CF01E4CC73
S11308A0089586E091E00E9458138AE391E03ED5D2
S11308B08823D9F38AE391E044D590931F01809370
S11308C01E01FC0160817181072E000C880B990BBD
S11308D033D7AB01BC018FE291E039D3E0911E0123
S11308E0F0911F0162817381072E000C880B990B14
S11308F023D7AB01BC0184E291E029D3D6CF6FEFBB
S11309007FEF81E090E0B0CF0895FC0190819111D8
S113091019C08181811103C083B783BF08958130D9
S113092021F483B7806483BF0895823021F483B7B0
S1130930886083BF0895833009F079C083B78864E1
S113094083BF08958FEF890F833018F5818181115A
S113095005C08FB58FBD8EB58EBD0895813039F435
S11309608FB582608FBD8EB580618EBD0895823053
S113097031F48FB58FBD8EB588618EBD08958330F7
S113098009F055C08FB582608FBD8EB588618EBD6C
S113099008959430C1F48181811103C085B585BD6A
S11309A00895813021F485B5806485BD0895823031
S11309B021F485B5886085BD08958330C1F585B57A
S11309C0886485BD08959550933088F5818181119F
S11309D009C0EBE8F0E080818083EAE8F0E0808100
S11309E080830895813059F4EBE8F0E080818260DF
S11309F08083EAE8F0E0808180618083089582301A
S1130A0051F4EBE8F0E080818083EAE8F0E0808153
S1130A10886180830895833051F4EBE8F0E08081AD
S1130A2082608083EAE8F0E08081886180830895B1
S1130A30FC019081911119C08281811103C083B797
S1130A4083BF0895813021F483B7806183BF089503
S1130A50823021F483B7806283BF0895833009F024
S1130A60D6C083B7806383BF08959130C9F482816F
S1130A70811103C08FB58FBD0895813021F48FB5E6
S1130A8080648FBD0895823021F48FB580688FBD56
S1130A900895833009F0BBC08FB5806C8FBD089575
S1130AA09230C9F48281811103C08FB58FBD08953E
S1130AB0813021F48FB580618FBD0895823021F497
S1130AC08FB580628FBD0895833009F0A0C08FB5C3
S1130AD080638FBD08959330C9F48281811103C06E
S1130AE08FB58FBD0895813021F48FB584608FBD9B
S1130AF00895823021F48FB588608FBD08958330C6
S1130B0009F085C08FB58C608FBD08959430C9F409
S1130B108281811103C085B585BD0895813021F49A
S1130B2085B5806185BD0895823021F485B58062E4
S1130B3085BD0895833009F06AC085B5806385BD9D
S1130B400895953009F58281811105C0EBE8F0E044
S1130B50808180830895813031F4EBE8F0E0808176
S1130B60806480830895823031F4EBE8F0E0808182
S1130B70806880830895833009F049C0EBE8F0E091
S1130B808081806C80830895963001F58281811183
S1130B9005C0EBE8F0E0808180830895813031F472
S1130BA0EBE8F0E08081806180830895823031F445
S1130BB0EBE8F0E08081806280830895833039F52A
S1130BC0EBE8F0E080818063808308959730F9F446
S1130BD08281811105C0EBE8F0E080818083089573
S1130BE0813031F4EBE8F0E0808184608083089503
S1130BF0823031F4EBE8F0E08081886080830895EE
S1130C00833029F4EBE8F0E080818C6080830895E0
S1130C10FC01908191114CC083819481A581B6819E
S1130C200097A105B10519F483B783BF08958130F6
S1130C309105A105B10521F483B7816083BF0895AF
S1130C4088309105A105B10521F483B7826083BF83
S1130C50089580329105A105B10521F483B783601D
S1130C6083BF089580349105A105B10521F483B7AC
S1130C70846083BF089580389105A105B10521F4EE
S1130C8083B7856083BF0895811521E09207A1058C
S1130C90B10521F483B7866083BF0895811594401C
S1130CA0A105B10509F0B4C083B7876083BF089577
S1130CB08FEF890F833088F583819481A581B68174
S1130CC00097A105B10519F48EB58EBD0895813044
S1130CD09105A105B10521F48EB581608EBD0895FD
S1130CE088309105A105B10521F48EB582608EBDD1
S1130CF00895811521E09207A105B10521F48EB56F
S1130D0084608EBD089581159440A105B10509F054
S1130D107FC08EB585608EBD08959430D1F58381F2
S1130D209481A581B6810097A105B10519F485B513
S1130D3085BD089581309105A105B10521F485B5DE
S1130D40816085BD089588309105A105B10521F420
S1130D5085B5826085BD089580349105A105B105EE
S1130D6021F485B5836085BD0895811521E092073E
S1130D70A105B10521F485B5846085BD089581156B
S1130D809440A105B10509F043C085B5856085BDD2
S1130D9008958BEF890F823010F09330C9F5838169
S1130DA09481A581B6810097A105B10529F4EAE8EB
S1130DB0F0E080818083089581309105A105B1051B
S1130DC031F4EAE8F0E0808181608083089588301E
S1130DD09105A105B10531F4EAE8F0E08081826073
S1130DE080830895811521E09207A105B10531F4AE
S1130DF0EAE8F0E08081846080830895811594405E
S1130E00A105B10529F4EAE8F0E0808185608083DA
S1130E100895FC012181222381F18081811104C084
S1130E2087B3806187BB0895813021F487B38062E2
S1130E3087BB0895823021F487B3806487BB08950B
S1130E40833021F487B3806887BB0895843021F40C
S1130E5087B3806887BB0895853021F482B18860A8
S1130E6082B90895863021F482B1806182B90895EF
S1130E70873019F482B1806282B90895FC019081AF
S1130E808FEF890F833030F0953021F0963011F0D8
S1130E90973069F48FE39CE997BD86BD8FE39CE9A5
S1130EA0A0E0B0E087839087A187B287089591116D
S1130EB008C08FEF90E0A0E0B0E087839087A1871F
S1130EC0B2870895CF93DF93EC01F8941EDDCE0131
S1130ED0AFDDCE019DDECE019CDFCE01CFDF789465
S1130EE0DF91CF910895FC016083662311F0643093
S1130EF069F483E0818382E0828380E490E0A0E06F
S1130F00B0E083839483A583B6831EC08FEF860FDE
S1130F10833030F0653021F0663011F06730A1F491
S1130F2083E0818382E0828388E090E0A0E0B0E007
S1130F3083839483A583B6838FE39CE9A0E0B0E028
S1130F4087839087A187B287CF01BCCF0895FC0126
S1130F50CB01BA012081213099F420E030E044E350
S1130F6053E44FD320E030E04AE755E471D420E065
S1130F7030E04AE754E4E1D2B1D37BBD6ABD0895C1
S1130F80223099F420E030E044E353E43AD320E003
S1130F9030E04AE755E45CD420E030E04AE754E42A
S1130FA0CCD29CD379BD68BD08952330A9F420E048
S1130FB030E044E353E425D320E030E04AE755E44D
S1130FC047D420E030E04AE754E4B7D287D37093A3
S1130FD079006093780008952530A9F420E030E08A
S1130FE044E353E40ED320E030E04AE755E430D440
S1130FF020E030E04AE754E4A0D270D37093870035
S11310006093860008952630A9F420E030E044E39C
S113101053E4F7D220E030E04AE755E419D420E065
S113102030E04AE754E489D259D370938500609341
S1131030840008952730A1F420E030E044E353E431
S1131040E0D220E030E04AE755E402D420E030E08A
S11310504AE754E472D242D37093830060938200CF
S113106008955D9BFECF8CB980E090E008950197D0
S113107069F46F3F7F4F51F460E070E081E398E0E2
S11310800E94D21290934902809348020895FC0171
S11310902081211130C081819281A381B481803863
S11310A0F5E29F07A105B10519F487E689B908950A
S11310B081152BE49207A105B10519F483E389B9DD
S11310C008958115E6E99E07A105B10519F489E1A2
S11310D089B908958115F1EE9F07A105B10519F4A9
S11310E080E189B908958115924CA140B105D1F5EB
S11310F088E089B908952130A9F5FC0181819281A4
S1131100A381B4818038F5E29F07A105B10521F4DC
S113111087E680939900089581152BE49207A10531
S1131120B10521F483E38093990008958115E6E9DC
S11311309E07A105B10521F489E1809399000895E2
S11311408115F1EE9F07A105B10521F480E180939B
S1131150990008958115924CA140B10519F488E0D5
S1131160809399000895FC018081811108C08AB19F
S11311708AB9E5E9F0E08081866080830895813052
S113118049F4EAE9F0E080818083EDE9F0E08081D0
S1131190866080830895FC012081211125C09681F9
S11311A091110AC0E5E9F0E0208130E1939FC0018C
S11311B01124822B80830895933051F4E5E9F0E003
S11311C0208130E1939FC0011124822B80830895F4
S11311D0923089F5E5E9F0E0208130E1939FC00188
S11311E01124822B80830895211125C0FC0196814E
S11311F091110AC0EDE9F0E0208130E1939FC00134
S11312001124822B80830895933051F4EDE9F0E0AA
S1131210208130E1939FC0011124822B80830895A3
S1131220923049F4EDE9F0E0208130E1939FC00170
S11312301124822B80830895FC012081211110C088
S11312408781813029F4E5E9F0E080818083089585
S11312508230C1F4E5E9F0E08081886080830895FC
S1131260213081F4FC018781813029F4EDE9F0E03B
S1131270808180830895823029F4EDE9F0E0808153
S1131280886080830895CF93DF93EC01F89488817C
S1131290811107C08AB188698AB982B1826082B932
S11312A00AC0813041F4EAE9F0E0808188698083F2
S11312B081B3886081BBCE01EADECE0154DFCE016A
S11312C06ADFCE01B9DF7894DF91CF910895CF938F
S11312D0DF93FC0180E8DF011896ED01982F199245
S11312E09A95E9F7A058BF4FED0119928A95E9F74D
S11312F0A058BF4F11961C921E9212961C921196E2
S11313001C9211961C92108280E895E2A0E0B0E055
S113131081839283A383B48388E08583168281E0EA
S11313208783CF01B0DFDF91CF910895865F9E4F11
S1131330FC018081811103C0882311F0089581E0AC
S113134008958F929F92AF92BF92CF92DF92EF92C5
S1131350FF920F931F93CF93DF93FC01E45FFE4F43
S11313602081222309F497C07C01349711821082D2
S1131370C12CD12C00E010E08091450290E0C81609
S1131380D9060CF06BC098012F5F3F4FF6013496DD
S1131390EE0FFF1FEE0DFF1D8081918180329105BC
S11313A041F00A9709F055C0C0E0D0E0A12CB12C5F
S11313B004C0C0E0D0E0A12CB12CC017D107A4F523
S11313C0C601801B910B8C0F9D1FFC013496EE0F00
S11313D0FF1FEE0DFF1D20813181205331092A307A
S11313E0310500F54901CE01B801BED7B801681B2B
S11313F0790B61507109072E000C880B990B9CD155
S11314009B01AC0160E070E080E291E484D2CFD231
S113141060D1869E9001879E300D969E300D1124DA
S1131420A20EB31E2196C9CFF701E85FFE4F80815B
S113143091819C012F5F3F4F31832083FC01EC5B42
S1131440FF4FEE0FFF1FEE0DFF1DB182A08220E0C3
S113145030E08FEFC81AD80A89018ECFF701E85F10
S1131460FE4F80819181803491055CF4FC01EC5B3A
S1131470FF4FEE0FFF1FEE0DFF1D1182108201962C
S1131480F2CFF701E65FFE4F108232961082C70159
S113149088579F4F00C0DF91CF911F910F91FF900C
S11314A0EF90DF90CF90BF90AF909F908F90089572
S11314B01F920F920FB60F9211240BB60F922F9317
S11314C08F939F93EF93FF935D9BFECFE091470231
S11314D021E02E0F20934702F0E08CB13496EE0FFA
S11314E0FF1FE65CFE4F90E091838083E22FF0E0E3
S11314F03396EE0FFF1FE65CFE4F808191810A97C1
S113150049F420934402209345021092470281E05B
S113151080934602FF91EF919F918F912F910F90AD
S11315200BBE0F900FBE0F901F9018956FEF7FEFBB
S113153081E090E09CCD08955058BB27AA270ED097
S11315404DC13ED130F043D120F031F49F3F11F42E
S11315501EF433C10EF4E095E7FB29C1E92F4FD106
S113156080F3BA17620773078407950718F071F4BC
S11315709EF567C10EF4E0950B2EBA2FA02D0B013A
S1131580B90190010C01CA01A0011124FF27591BC4
S113159099F0593F50F4503E68F11A16F040A22FCA
S11315A0232F342F4427585FF3CF4695379527953B
S11315B0A795F0405395C9F77EF41F16BA0B620B3A
S11315C0730B840BBAF09150A1F0FF0FBB1F661F81
S11315D0771F881FC2F70EC0BA0F621F731F841FC4
S11315E048F4879577956795B795F7959E3F08F0EA
S11315F0B3CF9395880F08F09927EE0F97958795A9
S113160008950CD0EBC0E3D040F0DAD030F021F4F0
S11316105F3F19F0CCC0511115C1CFC0F0D098F381
S11316209923C9F35523B1F3951B550BBB27AA275F
S113163062177307840738F09F5F5F4F220F331FD1
S1131640441FAA1FA9F333D00E2E3AF0E0E830D09D
S113165091505040E695001CCAF729D0FE2F27D0A0
S1131660660F771F881FBB1F261737074807AB076E
S1131670B0E809F0BB0B802DBF01FF2793585F4FE3
S11316802AF09E3F510568F092C0DCC05F3FECF346
S1131690983EDCF3869577956795B795F7959F5FA8
S11316A0C9F7880F911D9695879597F90895E1E0FC
S11316B0660F771F881FBB1F621773078407BA075B
S11316C020F0621B730B840BBA0BEE1F88F7E095B6
S11316D0089504D06894B111B5C0089598D088F0E5
S11316E09F5790F0B92F9927B751A0F0D1F0660F0A
S11316F0771F881F991F1AF0BA95C9F712C0B13025
S113170081F09FD0B1E008959CC0672F782F88277F
S1131710B85F39F0B93FCCF3869577956795B39563
S1131720D9F73EF490958095709561957F4F8F4FD2
S11317309F4F0895E89409C097FB3EF490958095D7
S1131740709561957F4F8F4F9F4F9923A9F0F92F83
S113175096E9BB279395F695879577956795B79501
S1131760F111F8CFFAF4BB0F11F460FF1BC06F5FE7
S11317707F4F8F4F9F4F16C0882311F096E911C0F9
S1131780772321F09EE8872F762F05C0662371F01A
S113179096E8862F70E060E02AF09A95660F771F2E
S11317A0881FDAF7880F9695879597F9089597F922
S11317B09F6780E870E060E008959FEF80EC0895F3
S11317C000240A941616170618060906089500241C
S11317D00A9412161306140605060895092E039496
S11317E0000C11F4882352F0BB0F40F4BF2B11F40A
S11317F060FF04C06F5F7F4F8F4F9F4F089557FD69
S11318009058440F551F59F05F3F71F04795880F6A
S113181097FB991F61F09F3F79F087950895121601
S113182013061406551FF2CF4695F1DF08C01616AD
S113183017061806991FF1CF86957105610508945E
S11318400895E894BB2766277727CB0197F9089575
S11318500BD0C4CFB5DF28F0BADF18F0952309F018
S1131860A6CFABCF1124EECFCADFA0F3959FD1F35F
S1131870950F50E0551F629FF001729FBB27F00D3A
S1131880B11D639FAA27F00DB11DAA1F649F66278F
S1131890B00DA11D661F829F2227B00DA11D621FDE
S11318A0739FB00DA11D621F839FA00D611D221F98
S11318B0749F3327A00D611D231F849F600D211D7C
S11318C0822F762F6A2F11249F5750408AF0E1F01F
S11318D088234AF0EE0FFF1FBB1F661F771F881F68
S11318E091505040A9F79E3F510570F060CFAACFA8
S11318F05F3FECF3983EDCF3869577956795B79553
S1131900F795E7959F5FC1F7FE2B880F911D96957C
S1131910879597F90895FA01EE0FFF1F3096210578
S1131920310599F16115710561F48038BFE39B07B6
S113193049F168949038810561F08038BFEF9B07C6
S113194041F0992342F5FF3FE1053105210511F1ED
S1131950E8940894E795D901AA2329F4AB2FBE2F64
S1131960F85FD0F310C0FF5F70F4A695E0F7F73985
S113197050F019F0FF3A38F49F779F930CD00F90F2
S113198007FC905808953EF018CF60E070E080E8BE
S11319909FE308954FE79F775F934F933F932F9370
S11319A0E7D02F913F914F915F9152DF25C02FDFF8
S11319B0E0F09E37D8F09639B8F49E3848F4672F93
S11319C0782F8827985FF9CF8695779567959395B3
S11319D09539D0F3B62FB1706B0F711D811D20F4B2
S11319E0879577956795939533C04DC02BCF19F4A0
S11319F00EF0DDCE26CFE1CE0ADFC8F39638C0F76D
S1131A0007F80F92E8942BE33AEA48EB5FE72EDFFE
S1131A100F920F920F924DB75EB70F92E9D0ECE898
S1131A20F0E03FD04F915F91EF91FF91E595EE1F6C
S1131A30FF1F49F0FE57E0684427EE0F441FFA9554
S1131A40E1F74195550B5BD00F9007FE4FC0089509
S1131A50882371F4772321F09850872B762F07C0C1
S1131A60662311F499270DC09051862B70E060E035
S1131A702AF09A95660F771F881FDAF7880F9695D4
S1131A80879597F908959F3F31F0915020F48795F9
S1131A9077956795B795880F911D9695879597F9D2
S1131AA00895DF93CF931F930F93FF92EF92DF92EA
S1131AB07B018C01689405C0DA2EEF01D5DEFE01AE
S1131AC0E894A5912591359145915591AEF3EF0197
S1131AD045DDFE019701A801DA9479F7DF90EF90D4
S1131AE0FF900F911F91CF91DF9108959B01AC015D
S1131AF060E070E080E89FE384CD59CEC4CF87DEF8
S1131B00E8F39923D9F3940F511DBBF3915050403E
S1131B1094F059F0882332F0660F771F881F915094
S1131B205040C1F79E3F510544F7880F911D96958B
S1131B30879597F908955F3FACF0983E9CF0BB27DA
S1131B40869577956795B79508F4B1609395C1F735
S1131B50BB0F58F711F460FFE8CF6F5F7F4F8F4FD3
S1131B609F4FE3CF6FCE0EF08ECF27CE68941FCE5B
S1131B704EDEC8F39923D1F3C6F3DF93CF931F93BB
S1131B800F93FF92C92FDD2788232AF02197660F30
S1131B90771F881FDAF720E030E040E85FEB9FE32F
S1131BA0883920F0803E30F021968F77C6DCE4EB54
S1131BB0F0E003C0C2DCE1EEF0E073DF8B01BE01B4
S1131BC0EC01FB2E6F5771097595771F880B990BE4
S1131BD0B3DD28E132E741E35FE346DEAF2D980150
S1131BE0AE01FF900F911F91CF91DF91B7DCF6CD3D
S1131BF0FA01DC01AA0FBB1F9B01AC01BF5728F4FB
S1131C0022273327442750781FC0B75188F4AB2FBD
S1131C100024469537952795011CA395D2F30020FF
S1131C2069F0220F331F441FB395DAF30DD084CC2F
S1131C3061307105A0E88A07B94630F49B01AC0114
S1131C406627772788279078309621F02083318380
S1131C504283538308952F923F924F925F926F92E3
S1131C607F928F929F92AF92BF92CF92DF92EF9228
S1131C70FF920F931F93CF93DF93CDB7DEB7609797
S1131C800FB6F894DEBF0FBECDBF7C011B016A0105
S1131C90FC0117821682838181FF2AC39E012F5F74
S1131CA03F4F3901F7019381F10193FD859193FF32
S1131CB081911F01882309F417C3853239F493FDF8
S1131CC0859193FF81911F01853231F4B70190E032
S1131CD0B3D456016501E6CF10E0512C912CFFE1FD
S1131CE0F915D8F08B3279F038F4803279F08332F8
S1131CF0A1F4F92DF0612EC08D3261F0803369F4C6
S1131D00292D21602DC0392D3260932E892D8460B8
S1131D10982E2AC0E92DE86015C097FC2DC020ED4F
S1131D20280F2A3088F496FE06C03AE0139F200D4F
S1131D301124122F19C08AE0589E200D1124522E0E
S1131D40E92DE0629E2E10C08E3231F496FCCCC296
S1131D50F92DF0649F2E08C08C3621F4292D2068BB
S1131D60922E02C0883641F4F10193FD859193FFD0
S1131D7081911F018111B3CF9BEB980F933020F415
S1131D80992D9061805E07C09BE9980F933008F00D
S1131D9059C1992D9F7E96FF16E09F73992E853623
S1131DA019F49064992E08C0863621F4392F3068CE
S1131DB0932E02C01111115097FE07C01C3350F42A
S1131DC044244394410E27E00BC0183038F027E038
S1131DD017E005C027E09CE3492E02C0212F412CC7
S1131DE0560184E0A80EB11CF601608171818281E4
S1131DF09381042DA301E8D26C01F981FC87F0FFE3
S1131E0002C0F3FF06C091FC06C092FE06C000E2C9
S1131E1005C00DE203C00BE201C000E08C858C70AC
S1131E2019F0011143C280C297FE10C04C0CFC850E
S1131E30F4FF04C08A81813309F44A94141474F5BC
S1131E4028E0241578F588E0482E2CC096FC2AC09A
S1131E50812F90E08C159D059CF03CEFC3163FEF5D
S1131E60D30674F0892D8068982E0AC0E2E0F0E071
S1131E70EC0FFD1FE10FF11D8081803319F4115027
S1131E801111F4CF97FE0EC044244394410E812FC8
S1131E9090E0C816D9062CF41C1904C044244394B9
S1131EA001C010E097FE06C01C141D0434F4C601E2
S1131EB0019605C085E090E002C081E090E0011148
S1131EC00196112331F0212F30E02F5F3F4F820F15
S1131ED0931F252D30E08217930714F4581A01C07C
S1131EE0512C892D897041F4552031F0B70180E2DD
S1131EF090E0A2D35A94F8CF002321F0B701802FA9
S1131F0090E09AD393FC08C0552031F0B70180E3E8
S1131F1090E092D35A94F8CF97FE4AC04601D7FE78
S1131F2002C0812C912CC60188199909F301E80F8C
S1131F30F91FFE87ED87960124193109388B2F8705
S1131F40012F10E01195019511093FEF83169306B7
S1131F5021F4B7018EE290E06FD3C814D9044CF099
S1131F608F8598898815990524F4ED85FE858181EE
S1131F7001C080E3F1E08F1A91082D853E852F5F23
S1131F803F4F3E872D878016910624F0B70190E0DD
S1131F9053D3DBCFC814D90441F49A81963320F487
S1131FA0953319F43C8534FF81E3B70190E048C0D0
S1131FB08A81813319F09C859F7E9C87B70190E0CC
S1131FC03BD3111105C094FC16C085E690E015C002
S1131FD0B7018EE290E030D31E5F82E001E0080F8B
S1131FE0F301E80FF11D8081B70190E025D3802F24
S1131FF00113F4CFE8CF85E490E0B7011DD3D7FCFB
S113200006C0C114D10441F4EC85E4FF05C0D194A9
S1132010C194D1088DE201C08BE2B70190E00CD3EA
S113202080E32AE0C216D1042CF08F5FFAE0CF1AC5
S1132030D108F7CFB70190E0FFD2B701C601C0962F
S1132040FBD249C1833631F0833779F0833509F007
S113205052C01FC0560132E0A30EB11CF6018081AC
S1132060898301E010E0630111C05601F2E0AF0E74
S1132070B11CF601C080D18096FE03C0612F70E0D0
S113208002C06FEF7FEFC60182D28C01F92DFF777A
S113209013C0560122E0A20EB11CF601C080D1800B
S11320A096FE03C0612F70E002C06FEF7FEFC601A0
S11320B063D28C01F92DF0689F2EF3FD18C0852D95
S11320C090E00817190798F4B70180E290E0B4D2C1
S11320D05A94F5CFF60197FC859197FE81916F0193
S11320E0B70190E0A9D251105A9401501109011579
S11320F0110581F7F0C0843611F0893659F556017F
S113210097FE09C024E0A20EB11CF6016081718122
S1132110828193810AC0F2E0AF0EB11CF6016081A6
S11321207181072E000C880B990BF92DFF769F2ED9
S113213097FF09C090958095709561957F4F8F4F5B
S11321409F4FF0689F2E2AE030E0A301E1D2C82E11
S1132150C6183EC0092D853721F40F7E2AE030E0F1
S11321601DC0097F8F3691F018F4883559F0BCC032
S1132170803719F0883711F0B7C0006104FF09C037
S1132180046007C094FE08C0066006C028E030E082
S113219005C020E130E002C020E132E0560107FF33
S11321A009C084E0A80EB11CF601608171818281AE
S11321B0938108C0F2E0AF0EB11CF6016081718119
S11321C080E090E0A301A4D2C82EC6180F77902E09
S11321D096FE0BC0092D0E7FC11650F494FE0AC062
S11321E092FC08C0092D0E7E05C0DC2C092D03C00D
S11321F0DC2C01C0D12E04FF0DC0FE01EC0DF11D3D
S11322008081803311F4097E09C002FF06C0D39493
S1132210D39404C0802F867809F0D39403FD10C0B2
S113222000FF06C01C2DD51478F4150D1D190CC023
S1132230D51450F4B70180E290E0FED1D394F8CFE6
S1132240D51410F45D1801C0512C04FF0FC0B70160
S113225080E390E0F1D102FF16C001FD03C088E7DE
S113226090E002C088E590E0B7010CC0802F86782A
S113227051F001FF02C08BE201C080E207FD8DE254
S1132280B70190E0D9D1C11630F4B70180E390E0F2
S1132290D3D11150F8CFCA94F301EC0DF11D808114
S11322A0B70190E0C9D1C110F6CF15C0F4E0F5151F
S11322B050F584E0581A93FE1EC0011125C02C85E8
S11322C023FF27C00EE011E0392D3071932EF80161
S11322D08491811121C0552009F4FCCCB70180E21E
S11322E090E0AAD15A94F7CFF7018681978123C051
S11322F08FEF9FEF20C0B70180E290E09DD15A9408
S11323005110F9CFDACF512CB701802F90E094D13E
S1132310D6CF02E111E0D8CF91108052B70190E0FE
S11323208BD10F5F1F4FD3CF23E0251510F483E02B
S1132330C1CF512CC4CF60960FB6F894DEBF0FBE48
S1132340CDBFDF91CF911F910F91FF90EF90DF9060
S1132350CF90BF90AF909F908F907F906F905F9041
S11323604F903F902F90089597FB072E16F40094FA
S113237006D077FD08D00BD007FC05D03EF490952D
S113238081959F4F0895709561957F4F0895AA1B7D
S1132390BB1B51E107C0AA1FBB1FA617B70710F04C
S11323A0A61BB70B881F991F5A95A9F7809590957E
S11323B0BC01CD010895EE0FFF1F0024001C0BBECD
S11323C00790F691E02D0994283008F027E0332790
S11323D0DA01990F311D87FD916000966105710541
S11323E039F432602E5F3D9330E32A95E1F7089586
S11323F09F3F30F080387105610509F03C5F3C5F18
S11324003D93913008F08068911DDF93CF931F9323
S11324100F93FF92EF92192F987F9695E92F969537
S11324209695E90FFF27E059FE4F99273327EE24AD
S1132430FF24A701E70105900894079428F4360FB8
S1132440E71EF81E491F511D660F771F881F991F2D
S11324500694A1F70590079428F4E70EF81E491F87
S1132460561FC11D770F881F991F661F0694A1F779
S11324700590079428F4F80E491F561FC71FD11D55
S1132480880F991F661F771F0694A1F7059007947C
S113249020F4490F561FC71FD81F990F661F771FB7
S11324A0881F0694A9F784911095177041F0D6956A
S11324B0C79557954795F794E7941A95C1F7E6E1C0
S11324C0F1E0689415901591359165919591059079
S11324D07FE27395E118F10A430B560BC90BD0093F
S11324E0C0F7E10CF11E431F561FC91FD01D7EF417
S11324F0703311F48A95E6CFE894015030F0080F58
S11325000AF40027021708F4202F2395022F7A33A8
S113251028F079E37D932A95E9F710C07D932A95F5
S113252089F6069497956795379517951794E1184A
S1132530F10A430B560BC90BD00998F023957E91F1
S113254073957A3308F070E37C932013B8F77E9187
S113255070617D9330F0839571E37D9370E32A95E8
S1132560E1F71124EF90FF900F911F91CF91DF912C
S1132570992787FD90950895FC010590615070405E
S11325800110D8F7809590958E0F9F1F0895FC0138
S11325906150704001900110D8F7809590958E0F8E
S11325A09F1F08950F931F93CF93DF93009731F4E8
S11325B06115710519F480E090E039C08B01EC01DC
S11325C06EE070E081E090E001D1FC01892B99F389
S11325D080E883830115110571F01387028781E870
S11325E0838380914A0290914B02892B21F4F093CA
S11325F04B02E0934A022097C9F0D187C0878381B8
S11326008260838380914C0290914D02892B71F4F6
S1132610F0934D02E0934C0280914E0290914F0250
S1132620892B21F4F0934F02E0934E02CF01DF9106
S1132630CF911F910F9108950F931F93CF93DF9321
S1132640FB01238121FD03C08FEF9FEF2CC022FFEC
S113265016C046815781248135814217530744F4BB
S1132660A081B1819D012F5F3F4F318320838C93E3
S1132670268137812F5F3F4F3783268314C08B0118
S1132680EC01FB010084F185E02D0995892BE1F62D
S1132690D80116968D919C911797019617969C9345
S11326A08E931697CE01DF91CF911F910F910895CC
S11326B00F931F93CF93DF93E0914C02F0914D025F
S11326C0238121FF1BC08C01D0E0C0E0F80181917F
S11326D08F0160914C0270914D02DB011896ED91CF
S11326E0FC911997882331F00995892B79F3DFEF51
S11326F0CFEFECCF8AE00995892B19F08FEF9FEF8C
S113270002C08D2F9C2FDF91CF911F910F910895BF
S1132710FA01AA27283051F1203181F1E8946F930E
S11327206E7F6E5F7F4F8F4F9F4FAF4FB1E03ED0B4
S1132730B4E03CD0670F781F891F9A1FA11D680F52
S1132740791F8A1F911DA11D6A0F711D811D911D85
S1132750A11D20D009F468943F912AE0269F1124FA
S11327603019305D3193DEF6CF010895462F47705E
S1132770405D4193B3E00FD0C9F7F6CF462F4F70B9
S1132780405D4A3318F0495D31FD4052419302D017
S1132790A9F7EACFB4E0A6959795879577956795BD
S11327A0BA95C9F700976105710508959B01AC01BD
S11327B00A2E06945795479537952795BA95C9F7E4
S11327C0620F731F841F951FA01D08950F931F93FD
S11327D0CF93DF93869F8001879F100D969F100DE6
S11327E01124C8010DD0EC01009721F0A80160E08C
S11327F070E027D1CE01DF91CF911F910F91089501
S11328000F931F93CF93DF938230910510F482E0EE
S113281090E0E0915202F091530220E030E0A0E019
S1132820B0E0309719F1408151810281138148173A
S11328305907C8F08417950769F4109731F0129678
S11328400C93129713961C9327C000935202109373
S1132850530222C02115310519F04217530718F409
S11328609A01BD01EF01DF01F801DBCF211531052C
S1132870F9F0281B390B2430310580F48A819B81BF
S11328806115710521F0FB019383828304C0909349
S1132890530280935202FE01329644C0FE01E20FBD
S11328A0F31F8193919322503109398328833AC0CD
S11328B02091500230915102232B41F420910201C6
S11328C03091030130935102209350022091000172
S11328D0309101012115310541F42DB73EB74091E6
S11328E0040150910501241B350BE0915002F09135
S11328F05102E217F307A0F42E1B3F0B28173907E8
S113290078F0AC014E5F5F4F2417350748F04E0F47
S11329105F1F50935102409350028193919302C0E0
S1132920E0E0F0E0CF01DF91CF911F910F91089586
S1132930CF93DF93009709F481C0FC01329713828F
S11329401282A0915202B0915302109781F4208117
S11329503181820F931F2091500230915102281728
S1132960390751F5F0935102E093500267C0ED012D
S113297020E030E0CE17DF0740F44A815B819E01FE
S113298041155105F1F0EA01F5CFD383C2834081AB
S11329905181840F951FC817D90759F488819981EB
S11329A0840F951F0296918380838A819B819383F0
S11329B082832115310529F4F0935302E0935202E6
S11329C03DC0E901FB83EA8349915991C40FD51FA6
S11329D0EC17FD0761F480819181840F951F0296A5
S11329E0E90199838883828193819B838A83E0E0D0
S11329F0F0E012968D919C911397009719F0FD01C8
S1132A00DC01F7CF8D919C9111979D012E5F3F4F73
S1132A10820F931F209150023091510228173907D9
S1132A2069F4309729F4109253021092520202C0B2
S1132A3013821282B0935102A0935002DF91CF917E
S1132A400895DC0101C06D9341505040E0F70895B2
S1072A50F894FFCF24
S1132A5400005402200053595354454D204F50450F
S1112A64524154452053455455502E2E000027
S9030000FC
