:10000000C8C00000EFC00000EDC00000EBC0000061
:10001000E9C00000E7C00000E5C00000E3C0000048
:10002000E1C00000DFC00000DDC00000DBC0000058
:10003000D9C00000D7C00000D5C00000D3C0000068
:10004000D1C00000CFC000000C944A09CBC0000012
:10005000C9C00000C7C00000C5C00000C3C0000088
:10006000C1C00000BFC00000BDC00000BBC0000098
:10007000B9C00000B7C00000B5C00000B3C00000A8
:10008000B1C00000AFC00000ADC000006E616E00E6
:10009000696E660000407A10F35A00A0724E18098B
:1000A0000010A5D4E80000E87648170000E40B54DF
:1000B000020000CA9A3B000000E1F50500008096AE
:1000C0009800000040420F000000A08601000000E0
:1000D000102700000000E80300000000640000009A
:1000E00000000A00000000000100000000002C7663
:1000F000D888DC674F0823DFC1DFAE59E1B1B7967E
:10010000E5E3E453C63AE651997696E8E6C28426DA
:10011000EB898C9B62ED407C6FFCEFBC9C9F40F2B6
:10012000BAA56FA5F490055A2AF75C936B6CF96732
:100130006DC11BFCE0E40D47FEF520E6B500D0EDF7
:10014000902E0300943577050080841E080000205F
:100150004E0A000000C80C333333330F986E1283FD
:100160001141EF8D2114893BE65516CFFEE6DB18D1
:10017000D1844B381BF77C1D901DA4BBE424203296
:1001800084725E228100C9F124ECA1E53D2756016D
:100190005C0111241FBECFEFD0E1DEBFCDBF24E054
:1001A000A0E0B1E001C01D92A13FB207E1F711E06C
:1001B000A0E0B1E0EAE1F3E200E00BBF02C007908B
:1001C0000D92A030B107D9F710E0C8ECD0E004C020
:1001D0002197FE010E94F00FC73CD107C9F763D0F9
:1001E0000C9481110DCF0F931F93CF93DF93EC01EC
:1001F0008B01019769F46F3F7F4F51F486E091E0E6
:100200000E947B0983E091E025D780E091E022D72E
:10021000CD2B69F40F3F1F4F51F480E091E01FD7C1
:1002200083E091E01CD786E091E00E947C09DF9199
:10023000CF911F910F91089540E950ED63E070E078
:1002400086E091E00E947D096FE083E091E008D7AD
:1002500060E180E091E004D761E082E333D061E0C7
:1002600082E3F2C10895CF9386E091E00E94FD09F8
:100270000297B8F086E091E00E94020AC82F883702
:1002800039F486E091E00E94210A83E091E052D7A0
:10029000C93739F486E091E00E94210A80E091E0BC
:1002A00049D7CF910895C8DFDEDFFECF6FEF7FEF34
:1002B00081E090E098CF08956FEF7FEF80E090E0CD
:1002C00092CF0895811106C0662321F08AB3816020
:1002D0008ABB0895813031F4662321F08AB38260AD
:1002E0008ABB0895823031F4662321F08AB384609A
:1002F0008ABB0895833031F4662321F08AB3886085
:100300008ABB0895843031F4662321F08AB380617A
:100310008ABB0895853031F4662321F08AB3806268
:100320008ABB0895863031F4662321F08AB3806455
:100330008ABB0895873031F4662321F08AB3806840
:100340008ABB08958A3031F4662321F087B3816037
:1003500087BB08958B3031F4662321F087B3826028
:1003600087BB08958C3031F4662321F087B3846015
:1003700087BB08958D3031F4662321F087B3886000
:1003800087BB08958E3031F4662321F087B38061F6
:1003900087BB08958F3031F4662321F087B38062E4
:1003A00087BB0895803131F4662321F087B38064E0
:1003B00087BB0895813131F4662321F087B38068CB
:1003C00087BB0895843131F4662321F084B38160C2
:1003D00084BB0895853131F4662321F084B38260B3
:1003E00084BB0895863131F4662321F084B38460A0
:1003F00084BB0895873131F4662321F084B388608B
:1004000084BB0895883131F4662321F084B3806180
:1004100084BB0895893131F4662321F084B380626E
:1004200084BB08958A3131F4662321F084B380645B
:1004300084BB08958B3131F4662321F084B3806846
:1004400084BB08958E3131F4662321F081B381603D
:1004500081BB08958F3131F4662321F081B382602E
:1004600081BB0895803231F4662321F081B384602A
:1004700081BB0895813231F4662321F081B3886015
:1004800081BB0895823231F4662321F081B380610B
:1004900081BB0895833231F4662321F081B38062F9
:1004A00081BB0895843231F4662321F081B38064E6
:1004B00081BB0895853231F4662321F081B38068D1
:1004C00081BB0895883231F4662321F082B18160C6
:1004D00082B90895893231F4662321F082B18260B5
:1004E00082B908958A3231F4662321F082B18460A2
:1004F00082B908958B3231F4662321F082B188608D
:1005000082B908958C3231F4662321F082B1806182
:1005100082B908958D3231F4662321F082B1806270
:1005200082B908958E3231F4662321F082B180645D
:1005300082B908958F3231F4662321F082B1806848
:1005400082B90895823341F4662331F0E1E6F0E0A8
:100550008081816080830895833341F4662331F084
:10056000E1E6F0E08081826080830895843341F485
:10057000662331F0E1E6F0E08081846080830895B5
:10058000853341F4662331F0E1E6F0E08081886054
:1005900080830895863341F4662331F0E1E6F0E08C
:1005A0008081806180830895873341F4662331F030
:1005B000E1E6F0E08081806280830895883341F431
:1005C000662331F0E1E6F0E0808180648083089565
:1005D000893341F4662331F0E1E6F0E08081806800
:1005E000808308958C3341F4662331F0E4E6F0E033
:1005F00080818160808308958D3341F4662331F0DA
:10060000E4E6F0E080818260808308958E3341F4D7
:10061000662331F0E4E6F0E0808184608083089511
:100620008F3341F4662331F0E4E6F0E080818860A6
:1006300080830895803439F4662329F0E4E6F0E0FD
:100640008081806180830895811106C0662321F036
:100650008BB381608BBB0895813031F4662321F028
:100660008BB382608BBB0895823031F4662321F016
:100670008BB384608BBB0895833031F4662321F003
:100680008BB388608BBB0895843031F4662321F0EE
:100690008BB380618BBB0895853031F4662321F0E4
:1006A0008BB380628BBB0895863031F4662321F0D2
:1006B0008BB380648BBB0895873031F4662321F0BF
:1006C0008BB380688BBB0895811106C0611104C093
:1006D0008BB38E7F8BBB0895813031F4611104C0E0
:1006E0008BB38D7F8BBB0895823031F4611104C0D0
:1006F0008BB38B7F8BBB0895833031F4611104C0C1
:100700008BB3877F8BBB0895843031F4611104C0B3
:100710008BB38F7E8BBB0895853031F4611104C09B
:100720008BB38F7D8BBB0895863031F4611104C08B
:100730008BB38F7B8BBB0895873031F4611104C07C
:100740008BB38F778BBB08958A3031F4662321F009
:1007500088B3816088BB08958B3031F4662321F023
:1007600088B3826088BB08958C3031F4662321F011
:1007700088B3846088BB08958D3031F4662321F0FE
:1007800088B3886088BB08958E3059F4662349F099
:1007900083B7882311F013BE11BE88B3806188BB74
:1007A00008958F3009F56623F9F08FB5811109C0DE
:1007B0008EB5811108C080917A00882331F081E0E4
:1007C00005C081E003C081E001C080E0882341F0E2
:1007D0001FBC1EBC10927A0017BC16BC1BBC1ABCF6
:1007E00088B3806288BB0895803109F56623F9F0EB
:1007F0008FB5811109C08EB5811108C080917A0032
:10080000882331F081E005C081E003C081E001C0B0
:1008100080E0882341F01FBC1EBC10927A0017BCF8
:1008200016BC19BC18BC88B3806488BB089581319C
:1008300019F5662309F18FB5811109C08EB58111B3
:1008400008C080917A00882331F081E005C081E002
:1008500003C081E001C080E0882351F01FBC1EBCB2
:1008600010927A0017BC16BC109279001092780092
:1008700088B3806888BB08958A3031F4611104C060
:1008800088B38E7F88BB08958B3031F4611104C02A
:1008900088B38D7F88BB08958C3031F4611104C01A
:1008A00088B38B7F88BB08958D3031F4611104C00B
:1008B00088B3877F88BB08958E3059F4611109C0D1
:1008C00083B7882311F013BE11BE88B38F7E88BB17
:1008D00008958F3009F561111FC08FB5811109C0CE
:1008E0008EB5811108C080917A00882331F081E0B3
:1008F00005C081E003C081E001C080E0882341F0B1
:100900001FBC1EBC10927A0017BC16BC1BBC1ABCC4
:1009100088B38F7D88BB0895803109F561111FC0B0
:100920008FB5811109C08EB5811108C080917A0000
:10093000882331F081E005C081E003C081E001C07F
:1009400080E0882341F01FBC1EBC10927A0017BCC7
:1009500016BC19BC18BC88B38F7B88BB0895813145
:1009600019F5611121C08FB5811109C08EB58111B2
:1009700008C080917A00882331F081E005C081E0D1
:1009800003C081E001C080E0882351F01FBC1EBC81
:1009900010927A0017BC16BC109279001092780061
:1009A00088B38F7788BB0895843131F4662321F0B2
:1009B00085B3816085BB0895853131F4662321F0CC
:1009C00085B3826085BB0895863131F4662321F0BA
:1009D00085B3846085BB0895873131F4662321F0A7
:1009E00085B3886085BB0895883131F4662321F092
:1009F00085B3806185BB0895893131F4662321F088
:100A000085B3806285BB08958A3131F4662321F075
:100A100085B3806485BB08958B3131F4662321F062
:100A200085B3806885BB0895843131F4611104C0B9
:100A300085B38E7F85BB0895853131F4611104C083
:100A400085B38D7F85BB0895863131F4611104C073
:100A500085B38B7F85BB0895873131F4611104C064
:100A600085B3877F85BB0895883131F4611104C057
:100A700085B38F7E85BB0895893131F4611104C03F
:100A800085B38F7D85BB08958A3131F4611104C02F
:100A900085B38F7B85BB08958B3131F4611104C020
:100AA00085B38F7785BB08958E3131F4662321F0AD
:100AB00082B3816082BB08958F3131F4662321F0C7
:100AC00082B3826082BB0895803231F4662321F0C4
:100AD00082B3846082BB0895813231F4662321F0B1
:100AE00082B3886082BB0895823231F4662321F09C
:100AF00082B3806182BB0895833231F4662321F092
:100B000082B3806282BB0895843231F4662321F07F
:100B100082B3806482BB0895853231F4662321F06C
:100B200082B3806882BB08958E3131F4611104C0B4
:100B300082B38E7F82BB08958F3131F4611104C07E
:100B400082B38D7F82BB0895803231F4611104C07D
:100B500082B38B7F82BB0895813231F4611104C06E
:100B600082B3877F82BB0895823231F4611104C061
:100B700082B38F7E82BB0895833231F4611104C049
:100B800082B38F7D82BB0895843231F4611104C039
:100B900082B38F7B82BB0895853231F4611104C02A
:100BA00082B38F7782BB0895883231F4662321F0B7
:100BB00083B1816083B90895893231F4662321F0CD
:100BC00083B1826083B908958A3231F4662321F0BB
:100BD00083B1846083B908958B3249F5662339F176
:100BE00080918B0081110AC080918A00811108C018
:100BF00080918C00882331F081E005C081E003C042
:100C000081E001C080E0882371F010928B00109287
:100C10008A0010928C001092810010928000109235
:100C200087001092860083B1886083B908958C3262
:100C300049F5662339F180918B0081110AC08091BA
:100C40008A00811108C080918C00882331F081E0F6
:100C500005C081E003C081E001C080E0882371F01D
:100C600010928B0010928A0010928C0010928100DA
:100C700010928000109285001092840083B18061F0
:100C800083B908958D3249F5662339F180918B003F
:100C900081110AC080918A00811108C080918C0066
:100CA000882331F081E005C081E003C081E001C00C
:100CB00080E0882371F010928B0010928A001092CD
:100CC0008C0010928100109280001092830010928C
:100CD000820083B1806283B908958E3231F4662335
:100CE00021F083B1806483B908958F3231F4662393
:100CF00021F083B1806883B90895883231F461119D
:100D000004C083B18E7F83B90895893231F46111B3
:100D100004C083B18D7F83B908958A3231F46111A3
:100D200004C083B18B7F83B908958B3249F561117B
:100D300027C080918B0081110AC080918A008111A7
:100D400008C080918C00882331F081E005C081E0EB
:100D500003C081E001C080E0882371F010928B0015
:100D600010928A0010928C001092810010928000E4
:100D7000109287001092860083B1877F83B908950F
:100D80008C3249F5611127C080918B0081110AC016
:100D900080918A00811108C080918C00882331F0F5
:100DA00081E005C081E003C081E001C080E08823CC
:100DB00071F010928B0010928A0010928C001092A9
:100DC000810010928000109285001092840083B1FF
:100DD0008F7E83B908958D3249F5611127C08091C6
:100DE0008B0081110AC080918A00811108C0809116
:100DF0008C00882331F081E005C081E003C081E0F0
:100E000001C080E0882371F010928B0010928A005C
:100E100010928C001092810010928000109283003A
:100E20001092820083B18F7D83B908958E3231F4A0
:100E3000611104C083B18F7B83B908958F3231F47F
:100E4000611104C083B18F7783B90895823341F46F
:100E5000662331F0E2E6F0E08081816080830895CE
:100E6000833341F4662331F0E2E6F0E08081826072
:100E700080830895843341F4662331F0E2E6F0E0A4
:100E80008081846080830895853341F4662331F046
:100E9000E2E6F0E08081886080830895863341F443
:100EA000662331F0E2E6F0E080818061808308957E
:100EB000873341F4662331F0E2E6F0E0808180621E
:100EC00080830895883341F4662331F0E2E6F0E050
:100ED0008081806480830895893341F4662331F0F2
:100EE000E2E6F0E08081806880830895823341F4F7
:100EF000611106C0E2E6F0E080818E7F8083089574
:100F0000833341F4611106C0E2E6F0E080818D7F19
:100F100080830895843341F4611106C0E2E6F0E075
:100F200080818B7F80830895853341F4611106C0F1
:100F3000E2E6F0E08081877F80830895863341F484
:100F4000611106C0E2E6F0E080818F7E8083089523
:100F5000873341F4611106C0E2E6F0E080818F7DC5
:100F600080830895883341F4611106C0E2E6F0E021
:100F700080818F7B80830895893341F4611106C09D
:100F8000E2E6F0E080818F77808308958C3341F42E
:100F9000662331F0E5E6F0E080818160808308958A
:100FA0008D3341F4662331F0E5E6F0E08081826024
:100FB000808308958E3341F4662331F0E5E6F0E056
:100FC00080818460808308958F3341F4662331F0FB
:100FD000E5E6F0E08081886080830895803441F404
:100FE000662331F0E5E6F0E080818061808308953A
:100FF0008C3341F4611106C0E5E6F0E080818E7F1C
:10100000808308958D3341F4611106C0E5E6F0E078
:1010100080818D7F808308958E3341F4611106C0F5
:10102000E5E6F0E080818B7F808308958F3341F483
:10103000611106C0E5E6F0E08081877F8083089536
:10104000803439F4611105C0E5E6F0E080818F7EDF
:1010500080830895FC011082128211820895089500
:10106000CF93C62FFC0160832FE33CE932832183B9
:101070006F3069F461E08FE025D98FB582688FBD4C
:101080008EB58A618EBD8FE39CE997BD86BDC03168
:1010900069F461E080E116D98FB582628FBD8EB5AB
:1010A0008A618EBD8FE39CE997BD86BDC13169F42D
:1010B00061E081E107D98FB58A608FBD8EB58A6105
:1010C0008EBD8FE39CE997BD86BDCB3279F461E09C
:1010D0008BE2F8D88FB582688FBD8EB58A618EBDE0
:1010E0008FE39CE99093810080938000CC3279F467
:1010F00061E08CE2E7D88FB582628FBD8EB58A61E0
:101100008EBD8FE39CE99093810080938000CD3267
:1011100079F461E08DE2D6D88FB58A608FBD8EB547
:101120008A618EBD8FE39CE990938100809380005B
:10113000CF9108951F93CF93DF93EC01162F653B5A
:1011400008F014EB88818F30B9F4612F70E080E0F3
:1011500090E0CCD220E030E044E353E433D220E00E
:1011600030E04AE755E450D320E030E04AE754E469
:10117000C5D190D27BBD6ABD88818031B9F4612F21
:1011800070E080E090E0B2D220E030E044E353E44D
:1011900019D220E030E04AE755E436D320E030E0D1
:1011A0004AE754E4ABD176D279BD68BD88818131FC
:1011B000C9F4612F70E080E090E098D220E030E048
:1011C00044E353E4FFD120E030E04AE755E41CD388
:1011D00020E030E04AE754E491D15CD2709379008A
:1011E0006093780088818B32C9F4612F70E080E0D1
:1011F00090E07CD220E030E044E353E4E3D120E00F
:1012000030E04AE755E400D320E030E04AE754E418
:1012100075D140D2709387006093860088818C32AC
:10122000C9F4612F70E080E090E060D220E030E00F
:1012300044E353E4C7D120E030E04AE755E4E4D288
:1012400020E030E04AE754E459D124D2709385007D
:101250006093840088818D32C9F4612F70E080E052
:1012600090E044D220E030E044E353E4ABD120E00E
:1012700030E04AE755E4C8D220E030E04AE754E4E1
:101280003DD108D27093830060938200DF91CF91AB
:101290001F9108951F920F920FB60F9211240BB653
:1012A0000F922F933F934F938F939F93EF93FF93BF
:1012B0005D9BFECF2091070130910801C901019685
:1012C00090930801809307014CB1F901E75FFE4F4D
:1012D0004083FC01E75FFE4F1082FF91EF919F91E9
:1012E0008F914F913F912F910F900BBE0F900FBE9A
:1012F0000F901F9018950895089588E98AB986E09F
:1013000080939500403689E058076105710531F4F6
:1013100081E08093900080EA89B96DC0403C82E111
:1013200058076105710519F48FEC89B964C040381C
:1013300085E258076105710519F487E689B95BC034
:10134000403488E358076105710519F484E489B9CC
:1013500052C041158BE458076105710519F483E308
:1013600089B949C0403880E758076105710519F40B
:1013700082E289B940C0411586E9580761057105C7
:1013800019F489E189B937C0411581EE5807610523
:10139000710519F480E189B92EC041158CE2580716
:1013A00081E06807710519F48CE089B924C0411502
:1013B00082EC580781E06807710519F488E089B963
:1013C0001AC0403980ED580783E06807710519F4A9
:1013D00083E089B910C0403281EA580787E0680786
:1013E000710519F481E089B906C0403452446F4058
:1013F000710509F419B878940895809107019091C6
:10140000080108958091090120E030E04091070132
:10141000509108012417350768F4A9014F5F5F4F09
:10142000FA01E75FFE4F9081F901E75FFE4F90837D
:101430009A01ECCF415051095093080140930701A4
:1014400008958F929F92AF92BF92FF920F931F9336
:10145000CF93DF93EC01812C912C540180E3F12C8C
:1014600090ED980F9A3010F08D3289F5CE01CADFD9
:101470008D3221F190ED980F9A3010F5B501A4014D
:10148000440F551F661F771F8A019B01000F111F14
:10149000221F331F000F111F221F331F400F511F28
:1014A000621F731F480F511D611D711D4A015B01B1
:1014B00090E3891A9108A108B10802C0FF24F394AF
:1014C000E7ECF0E03197F1F700C00000C9CFFF2052
:1014D00041F0B094A09490948094811C911CA11C24
:1014E000B11CC501B401DF91CF911F910F91FF9005
:1014F000BF90AF909F908F9008955058BB27AA2718
:101500000ED048C139D130F03ED120F031F49F3FA8
:1015100011F41EF42EC10EF4E095E7FB24C1E92F6F
:101520004AD180F3BA17620773078407950718F04A
:1015300071F49EF562C10EF4E0950B2EBA2FA02D2A
:101540000B01B90190010C01CA01A0011124FF2770
:10155000591B99F0593F50F4503E68F11A16F0406B
:10156000A22F232F342F4427585FF3CF469537956A
:101570002795A795F0405395C9F77EF41F16BA0B2F
:10158000620B730B840BBAF09150A1F0FF0FBB1FDD
:10159000661F771F881FC2F70EC0BA0F621F731F26
:1015A000841F48F4879577956795B795F7959E3F83
:1015B00008F0B3CF9395880F08F09927EE0F979511
:1015C000879508950CD0E6C0DED040F0D5D030F03D
:1015D00021F45F3F19F0C7C0511110C1CAC0EBD050
:1015E00098F39923C9F35523B1F3951B550BBB27EA
:1015F000AA2762177307840738F09F5F5F4F220F97
:10160000331F441FAA1FA9F333D00E2E3AF0E0E88F
:1016100030D091505040E695001CCAF729D0FE2FDB
:1016200027D0660F771F881FBB1F2617370748076D
:10163000AB07B0E809F0BB0B802DBF01FF27935823
:101640005F4F2AF09E3F510568F08DC0D7C05F3FC5
:10165000ECF3983EDCF3869577956795B795F7950B
:101660009F5FC9F7880F911D9695879597F9089503
:10167000E1E0660F771F881FBB1F6217730784079F
:10168000BA0720F0621B730B840BBA0BEE1F88F7AE
:10169000E095089598D088F09F5790F0B92F99273A
:1016A000B751A0F0D1F0660F771F881F991F1AF06D
:1016B000BA95C9F712C0B13081F09FD0B1E008955A
:1016C0009CC0672F782F8827B85F39F0B93FCCF3DB
:1016D000869577956795B395D9F73EF49095809563
:1016E000709561957F4F8F4F9F4F0895E89409C083
:1016F00097FB3EF490958095709561957F4F8F4F45
:101700009F4F9923A9F0F92F96E9BB279395F6955A
:10171000879577956795B795F111F8CFFAF4BB0FD8
:1017200011F460FF1BC06F5F7F4F8F4F9F4F16C03C
:10173000882311F096E911C0772321F09EE8872FC6
:10174000762F05C0662371F096E8862F70E060E082
:101750002AF09A95660F771F881FDAF7880F9695FB
:10176000879597F9089597F99F6780E870E060E0A2
:1017700008959FEF80EC089500240A94161617062A
:1017800018060906089500240A9412161306140672
:1017900005060895092E0394000C11F4882352F0D5
:1017A000BB0F40F4BF2B11F460FF04C06F5F7F4F8D
:1017B0008F4F9F4F089557FD9058440F551F59F074
:1017C0005F3F71F04795880F97FB991F61F09F3F2E
:1017D00079F087950895121613061406551FF2CF57
:1017E0004695F1DF08C0161617061806991FF1CFA7
:1017F00086957105610508940895E894BB276627CE
:101800007727CB0197F908950BD0C4CFB5DF28F027
:10181000BADF18F0952309F0A6CFABCF1124EECF95
:10182000CADFA0F3959FD1F3950F50E0551F629F3B
:10183000F001729FBB27F00DB11D639FAA27F00D29
:10184000B11DAA1F649F6627B00DA11D661F829F50
:101850002227B00DA11D621F739FB00DA11D621F35
:10186000839FA00D611D221F749F3327A00D611D52
:10187000231F849F600D211D822F762F6A2F112434
:101880009F5750408AF0E1F088234AF0EE0FFF1F87
:10189000BB1F661F771F881F91505040A9F79E3FBE
:1018A000510570F060CFAACF5F3FECF3983EDCF3B8
:1018B000869577956795B795F795E7959F5FC1F7FB
:1018C000FE2B880F911D9695879597F908952F9275
:1018D0003F924F925F926F927F928F929F92AF92C0
:1018E000BF92CF92DF92EF92FF920F931F93CF930D
:1018F000DF93CDB7DEB760970FB6F894DEBF0FBEAB
:10190000CDBF7C011B016A01FC0117821682838115
:1019100081FF2AC39E012F5F3F4F3901F701938159
:10192000F10193FD859193FF81911F01882309F4B3
:1019300017C3853239F493FD859193FF81911F017F
:10194000853231F4B70190E042D456016501E6CF0B
:1019500010E0512C912CFFE1F915D8F08B3279F081
:1019600038F4803279F08332A1F4F92DF0612EC081
:101970008D3261F0803369F4292D21602DC0392D1D
:101980003260932E892D8460982E2AC0E92DE8605C
:1019900015C097FC2DC020ED280F2A3088F496FE44
:1019A00006C03AE0139F200D1124122F19C08AE0BF
:1019B000589E200D1124522EE92DE0629E2E10C05B
:1019C0008E3231F496FCCCC2F92DF0649F2E08C003
:1019D0008C3621F4292D2068922E02C0883641F4DD
:1019E000F10193FD859193FF81911F018111B3CF87
:1019F0009BEB980F933020F4992D9061805E07C087
:101A00009BE9980F933008F059C1992D9F7E96FF5E
:101A100016E09F73992E853619F49064992E08C0AC
:101A2000863621F4392F3068932E02C011111150DF
:101A300097FE07C01C3350F444244394410E27E022
:101A40000BC0183038F027E017E005C027E09CE312
:101A5000492E02C0212F412C560184E0A80EB11C52
:101A6000F6016081718182819381042DA301C1D22D
:101A70006C01F981FC87F0FF02C0F3FF06C091FC06
:101A800006C092FE06C000E205C00DE203C00BE2F4
:101A900001C000E08C858C7019F0011143C280C236
:101AA00097FE10C04C0CFC85F4FF04C08A81813382
:101AB00009F44A94141474F528E0241578F588E0A4
:101AC000482E2CC096FC2AC0812F90E08C159D05D5
:101AD0009CF03CEFC3163FEFD30674F0892D80686D
:101AE000982E0AC0E2E0F0E0EC0FFD1FE10FF11DBF
:101AF0008081803319F411501111F4CF97FE0EC07C
:101B000044244394410E812F90E0C816D9062CF44A
:101B10001C1904C04424439401C010E097FE06C081
:101B20001C141D0434F4C601019605C085E090E044
:101B300002C081E090E001110196112331F0212FC4
:101B400030E02F5F3F4F820F931F252D30E082172B
:101B5000930714F4581A01C0512C892D897041F44F
:101B6000552031F0B70180E290E031D35A94F8CF9C
:101B7000002321F0B701802F90E029D393FC08C007
:101B8000552031F0B70180E390E021D35A94F8CF8B
:101B900097FE4AC04601D7FE02C0812C912CC60197
:101BA00088199909F301E80FF91FFE87ED8796015F
:101BB00024193109388B2F87012F10E011950195D9
:101BC00011093FEF8316930621F4B7018EE290E0EE
:101BD000FED2C814D9044CF08F85988988159905D0
:101BE00024F4ED85FE85818101C080E3F1E08F1A48
:101BF00091082D853E852F5F3F4F3E872D878016AC
:101C0000910624F0B70190E0E2D2DBCFC814D904EA
:101C100041F49A81963320F4953319F43C8534FFCE
:101C200081E3B70190E048C08A81813319F09C8537
:101C30009F7E9C87B70190E0CAD2111105C094FC29
:101C400016C085E690E015C0B7018EE290E0BFD2E5
:101C50001E5F82E001E0080FF301E80FF11D8081B3
:101C6000B70190E0B4D2802F0113F4CFE8CF85E420
:101C700090E0B701ACD2D7FC06C0C114D10441F446
:101C8000EC85E4FF05C0D194C194D1088DE201C078
:101C90008BE2B70190E09BD280E32AE0C216D10428
:101CA0002CF08F5FFAE0CF1AD108F7CFB70190E0A0
:101CB0008ED2B701C601C0968AD249C1833631F0AF
:101CC000833779F0833509F052C01FC0560132E0E6
:101CD000A30EB11CF6018081898301E010E063014D
:101CE00011C05601F2E0AF0EB11CF601C080D180E8
:101CF00096FE03C0612F70E002C06FEF7FEFC60158
:101D00005BD28C01F92DFF7713C0560122E0A20EA1
:101D1000B11CF601C080D18096FE03C0612F70E037
:101D200002C06FEF7FEFC6013CD28C01F92DF06845
:101D30009F2EF3FD18C0852D90E00817190798F421
:101D4000B70180E290E043D25A94F5CFF60197FCB8
:101D5000859197FE81916F01B70190E038D25110C3
:101D60005A94015011090115110581F7F0C084360C
:101D700011F0893659F5560197FE09C024E0A20EEC
:101D8000B11CF60160817181828193810AC0F2E009
:101D9000AF0EB11CF60160817181072E000C880B1B
:101DA000990BF92DFF769F2E97FF09C0909580958E
:101DB000709561957F4F8F4F9F4FF0689F2E2AE05F
:101DC00030E0A30140D2C82EC6183EC0092D853789
:101DD00021F40F7E2AE030E01DC0097F8F3691F09C
:101DE00018F4883559F0BCC0803719F0883711F0E5
:101DF000B7C0006104FF09C0046007C094FE08C0BA
:101E0000066006C028E030E005C020E130E002C0F6
:101E100020E132E0560107FF09C084E0A80EB11CA2
:101E2000F601608171818281938108C0F2E0AF0E7A
:101E3000B11CF6016081718180E090E0A30103D2C2
:101E4000C82EC6180F77902E96FE0BC0092D0E7F58
:101E5000C11650F494FE0AC092FC08C0092D0E7EF3
:101E600005C0DC2C092D03C0DC2C01C0D12E04FFE1
:101E70000DC0FE01EC0DF11D8081803311F4097E4F
:101E800009C002FF06C0D394D39404C0802F867883
:101E900009F0D39403FD10C000FF06C01C2DD5141B
:101EA00078F4150D1D190CC0D51450F4B70180E25B
:101EB00090E08DD1D394F8CFD51410F45D1801C003
:101EC000512C04FF0FC0B70180E390E080D102FFE6
:101ED00016C001FD03C088E790E002C088E590E0ED
:101EE000B7010CC0802F867851F001FF02C08BE251
:101EF00001C080E207FD8DE2B70190E068D1C11614
:101F000030F4B70180E390E062D11150F8CFCA9469
:101F1000F301EC0DF11D8081B70190E058D1C110A3
:101F2000F6CF15C0F4E0F51550F584E0581A93FE8D
:101F30001EC0011125C02C8523FF27C00CE810E02E
:101F4000392D3071932EF8018491811121C05520D3
:101F500009F4FCCCB70180E290E039D15A94F7CF74
:101F6000F7018681978123C08FEF9FEF20C0B701D3
:101F700080E290E02CD15A945110F9CFDACF512C55
:101F8000B701802F90E023D1D6CF00E910E0D8CF61
:101F900091108052B70190E01AD10F5F1F4FD3CF3D
:101FA00023E0251510F483E0C1CF512CC4CF6096F7
:101FB0000FB6F894DEBF0FBECDBFDF91CF911F915A
:101FC0000F91FF90EF90DF90CF90BF90AF909F90D8
:101FD0008F907F906F905F904F903F902F900895DB
:101FE000EE0FFF1F0024001C0BBE0790F691E02DA2
:101FF0000994283008F027E03327DA01990F311DC2
:1020000087FD916000966105710539F432602E5F9D
:102010003D9330E32A95E1F708959F3F30F08038F3
:102020007105610509F03C5F3C5F3D93913008F01C
:102030008068911DDF93CF931F930F93FF92EF92D0
:10204000192F987F9695E92F96959695E90FFF277A
:10205000E251FF4F99273327EE24FF24A701E70120
:1020600005900894079428F4360FE71EF81E491FC0
:10207000511D660F771F881F991F0694A1F70590C1
:10208000079428F4E70EF81E491F561FC11D770F4D
:10209000881F991F661F0694A1F70590079428F4DE
:1020A000F80E491F561FC71FD11D880F991F661FA5
:1020B000771F0694A1F70590079420F4490F561F47
:1020C000C71FD81F990F661F771F881F0694A9F78F
:1020D00084911095177041F0D695C79557954795FF
:1020E000F794E7941A95C1F7E4E9F0E06894159045
:1020F000159135916591959105907FE27395E11861
:10210000F10A430B560BC90BD009C0F7E10CF11EC5
:10211000431F561FC91FD01D7EF4703311F48A95DA
:10212000E6CFE894015030F0080F0AF400270217B8
:1021300008F4202F2395022F7A3328F079E37D933A
:102140002A95E9F710C07D932A9589F6069497950C
:102150006795379517951794E118F10A430B560BBD
:10216000C90BD00998F023957E9173957A3308F0C6
:1021700070E37C932013B8F77E9170617D9330F00B
:10218000839571E37D9370E32A95E1F71124EF9035
:10219000FF900F911F91CF91DF91992787FD909527
:1021A0000895FC010590615070400110D8F78095AA
:1021B00090958E0F9F1F0895FC0161507040019013
:1021C0000110D8F7809590958E0F9F1F08950F935B
:1021D0001F93CF93DF93FB01238121FD03C08FEF7A
:1021E0009FEF2CC022FF16C0468157812481358184
:1021F0004217530744F4A081B1819D012F5F3F4FE7
:10220000318320838C93268137812F5F3F4F378323
:10221000268314C08B01EC01FB010084F185E02DC5
:102220000995892BE1F6D80116968D919C91179707
:10223000019617969C938E931697CE01DF91CF91BE
:102240001F910F910895FA01AA27283051F12031EA
:1022500081F1E8946F936E7F6E5F7F4F8F4F9F4F3A
:10226000AF4FB1E03ED0B4E03CD0670F781F891F7C
:102270009A1FA11D680F791F8A1F911DA11D6A0F4A
:10228000711D811D911DA11D20D009F468943F91FD
:102290002AE0269F11243019305D3193DEF6CF01FC
:1022A0000895462F4770405D4193B3E00FD0C9F7C2
:1022B000F6CF462F4F70405D4A3318F0495D31FD2F
:1022C0004052419302D0A9F7EACFB4E0A695979582
:1022D000879577956795BA95C9F700976105710558
:1022E00008959B01AC010A2E0694579547953795A2
:1022F0002795BA95C9F7620F731F841F951FA01DFC
:10230000089510E0C8ECD0E003C0FE0169DE21961C
:0A231000C93CD107D1F7F894FFCFC4
:00000001FF
